{
    "contractName": "EtherStore",
    "abi": [
        {
            "inputs": [
                {
                    "internalType": "address",
                    "name": "",
                    "type": "address"
                }
            ],
            "name": "balances",
            "outputs": [
                {
                    "internalType": "uint256",
                    "name": "",
                    "type": "uint256"
                }
            ],
            "stateMutability": "view",
            "type": "function"
        },
        {
            "inputs": [],
            "name": "deposit",
            "outputs": [],
            "stateMutability": "payable",
            "type": "function"
        },
        {
            "inputs": [],
            "name": "getBalance",
            "outputs": [
                {
                    "internalType": "uint256",
                    "name": "",
                    "type": "uint256"
                }
            ],
            "stateMutability": "view",
            "type": "function"
        },
        {
            "inputs": [],
            "name": "withdraw",
            "outputs": [],
            "stateMutability": "nonpayable",
            "type": "function"
        }
    ],
    "bytecode": "608060405234801561001057600080fd5b50610224806100206000396000f3fe60806040526004361061003f5760003560e01c806312065fe01461004457806327e235e3146100655780633ccfd60b14610092578063d0e30db0146100a9575b600080fd5b34801561005057600080fd5b50475b60405190815260200160405180910390f35b34801561007157600080fd5b50610053610080366004610198565b60006020819052908152604090205481565b34801561009e57600080fd5b506100a76100b1565b005b6100a7610172565b33600090815260208190526040902054806100cb57600080fd5b604051600090339083908381818185875af1925050503d806000811461010d576040519150601f19603f3d011682016040523d82523d6000602084013e610112565b606091505b505090508061015e5760405162461bcd60e51b81526020600482015260146024820152732330b4b632b2103a379039b2b7321022ba3432b960611b604482015260640160405180910390fd5b505033600090815260208190526040812055565b33600090815260208190526040812080543492906101919084906101c8565b9091555050565b6000602082840312156101aa57600080fd5b81356001600160a01b03811681146101c157600080fd5b9392505050565b600082198211156101e957634e487b7160e01b600052601160045260246000fd5b50019056fea26469706673582212205a7528542339701bdd7eb10f92f65b97c635dece68e798e3f1b8bf9d21476b7064736f6c634300080b0033",
    "sourcePath": "c:/Users/maria/Documents/GitHub/sol-analyze/sol-analyze/reentrancy.sol",
    "compiler": {
        "name": "solc",
        "version": "0.8.11+commit.d7f03943"
    },
    "functionHashes": {
        "balances(address)": "27e235e3",
        "deposit()": "d0e30db0",
        "getBalance()": "12065fe0",
        "withdraw()": "3ccfd60b"
    },
    "gasEstimates": {
        "creation": {
            "codeDepositCost": "109600",
            "executionCost": "159",
            "totalCost": "109759"
        },
        "external": {
            "balances(address)": "2475",
            "deposit()": "24532",
            "getBalance()": "149",
            "withdraw()": "infinite"
        }
    }
}